:10000000803102288731E62F8D31CD2D8D31D02DD5
:100010008D31D22D8D31D42D8D31D62D8D31D82DE0
:0C0020008D31DA2D8D31DC2D8D31E32D7A
:10003000FE0012001E00FE0B192800344001AB0127
:10004000A81F2928A709A809A70A0319A80AAB010C
:10005000AB0AA61F3028A509A609A50A0319A60AF6
:100060002508260403195728AA01AA0AA61B422814
:100070000130A535A60D890B39280130A9002908C2
:10008000AA07362826082802031D48282508270223
:10009000031C4E282508A7022608A83B0130A636D7
:1000A000A50C890B4F280130AA02031D42282B08FA
:1000B00003195F28A709A809A70A0319A80A28088D
:1000C000A6002708A50008004001AE000030AF00E0
:1000D0000030B000B1000030B200B3000130B40015
:1000E0000030B5000030B600B7000030B800B900ED
:1000F0000130BA000030BB0041015D084001BD0085
:1001000041015C084001BC008A313F22803101304E
:100110004001AE000030AF000030B000B100003050
:10012000B200B3000130B4000030B5000030B600BA
:10013000B7000030B800B9000130BA000030BB0091
:1001400041015D084001BD0041015C084001BC0067
:100150008A313F22803101304001AE000030AF00D3
:100160000030B000B1000030B200B3000130B40084
:100170000030B5000030B600B7000030B800B9005C
:100180000130BA000030BB0041015D084001BD00F4
:1001900041015C084001BC008A313F2280310030BF
:1001A0004001AE00AF000130B0000030B1000130BE
:1001B000B2000030B3000030B400B5000130B6002A
:1001C0000030B7000130B8000030B9000030BA008C
:1001D000BB0041015D084001BD0041015C084001D8
:1001E000BC008A313F22803100304001AE00AF00B8
:1001F0000030B000B1000030B200B3000030B400F5
:10020000B5000030B600B7000030B800B9000030CB
:10021000BA00BB0041015B084001BD0041015A0822
:100220004001BC008A313F22803101304001AE00E4
:100230000030AF000130B0000030B1000130B2003A
:100240000030B3000130B4000030B5000130B6001A
:100250000030B7000130B8000030B9000130BA00FA
:100260000030BB0041015D084001BD0041015C0858
:100270004001BC008A313F22803101304001AE0094
:100280000030AF000030B000B1000030B200B30069
:100290000030B400B5000030B600B7000030B80040
:1002A000B9000130BA000030BB0041015D084001D7
:1002B000BD0041015C084001BC008A313F22803111
:1002C00001304001AE000030AF000030B000B1009E
:1002D0000030B200B3000030B400B5000030B6000A
:1002E000B7000030B800B9000130BA000030BB00E0
:1002F00041015D084001BD0041015C084001BC00B6
:100300008A313F22803101304001AE000030AF0021
:100310000030B000B1000030B200B3000030B400D3
:10032000B5000030B600B7000030B800B9000130A9
:10033000BA000030BB0041015D084001BD00410131
:100340005C084001BC008A313F228031013040010D
:10035000AE000030AF000130B0000030B10001301D
:10036000B2000030B3000130B4000030B5000130FD
:10037000B6000030B7000130B8000030B9000130DD
:10038000BA000030BB0041015D084001BD004101E1
:100390005C084001BC008A313F22803100304001BE
:1003A000AE00AF000030B000B1000030B200B300CA
:1003B0000030B400B5000030B600B7000030B8001F
:1003C000B9000030BA00BB0041015B084001BD002C
:1003D00041015A084001BC008A313F22803101307E
:1003E0004001AE000030AF000130B0000030B1007D
:1003F0000130B2000030B3000130B4000030B5006D
:100400000130B6000030B7000130B8000030B9004C
:100410000130BA000030BB0041015D084001BD0061
:1004200041015C084001BC008A313F22803100302C
:100430004001AE00AF000130B0000030B10001302B
:10044000B2000030B3000030B400B5000030B60098
:10045000B7000030B800B9000130BA000030BB006E
:1004600041015D084001BD0041015C084001BC0044
:100470008A313F22803100304001AE00AF000030B1
:10048000B000B1000030B200B3000130B400003061
:10049000B5000030B600B7000030B800B900003039
:1004A000BA00BB0041015D084001BD0041015C088C
:1004B0004001BC008A313F22803100304001AE0053
:1004C000AF000030B000B1000030B200B300003027
:1004D000B400B5000130B6000030B7000130B800FC
:1004E0000030B9000030BA00BB0041015D08400196
:1004F000BD0041015C084001BC008A313F228031CF
:1005000001304001AE000030AF000130B0000030DB
:10051000B1000130B2000030B3000130B40000304F
:10052000B5000130B6000030B7000130B80000302F
:10053000B9000130BA000030BB0041015D08400144
:10054000BD0041015C084001BC008A313F2280317E
:1005500000304001AE00AF000030B000B10000300C
:10056000B200B3000030B400B5000030B600B700F0
:100570000030B800B9000030BA00BB0041015B0890
:100580004001BD0041015A084001BC008A313F22B0
:10059000803101304001AE000030AF000130B000CA
:1005A0000030B1000130B2000030B3000130B400BF
:1005B0000030B5000130B6000030B7000130B8009F
:1005C0000030B9000130BA000030BB0041015D08C5
:1005D0004001BD0041015C084001BC008A313F225E
:1005E000803101304001AE000030AF000030B0007B
:1005F000B1000030B200B3000130B4000030B500EB
:100600000030B600B7000030B800B9000130BA00C1
:100610000030BB0041015D084001BD0041015C08A4
:100620004001BC008A313F22803101304001AE00E0
:100630000030AF000030B000B1000030B200B300B5
:100640000130B4000030B5000030B600B700003013
:10065000B800B9000130BA000030BB0041015D08AC
:100660004001BD0041015C084001BC008A313F22CD
:10067000803101304001AE000030AF000030B000EA
:10068000B1000030B200B3000130B4000030B5005A
:100690000130B6000030B7000130B8000030B900BA
:1006A0000130BA000030BB0041015D084001BD00CF
:1006B00041015C084001BC008A313F228031013099
:1006C0004001AE000030AF000130B0000030B1009A
:1006D0000130B2000030B3000130B4000030B5008A
:1006E0000130B6000030B7000130B8000030B9006A
:1006F0000130BA000030BB0041015D084001BD007F
:1007000041015C084001BC008A313F228031003049
:100710004001AE00AF000030B000B1000030B200C8
:10072000B3000030B400B5000030B600B7000030B0
:10073000B800B9000030BA00BB0041015B084001BD
:10074000BD0041015A084001BC008A313F2280317E
:1007500001304001AE000030AF000130B000003089
:10076000B1000130B2000030B3000130B4000030FD
:10077000B5000130B6000030B7000130B8000030DD
:10078000B9000130BA000030BB0041015D084001F2
:10079000BD0041015C084001BC008A313F2280312C
:1007A00001304001AE000030AF000030B000B100B9
:1007B0000030B200B3000130B4000030B5000030AA
:1007C000B600B7000030B800B9000130BA00003000
:1007D000BB0041015D084001BD0041015C084001D2
:1007E000BC008A313F22803101304001AE00003030
:1007F000AF000030B000B1000030B200B3000130F3
:10080000B4000030B5000030B600B7000030B800CA
:10081000B9000130BA000030BB0041015D08400161
:10082000BD0041015C084001BC008A313F2280319B
:1008300001304001AE000030AF000030B000B10028
:100840000030B200B3000130B4000030B500013018
:10085000B6000030B7000130B8000030B9000130F8
:10086000BA000030BB0041015D084001BD004101FC
:100870005C084001BC008A313F22803101304001D8
:10088000AE000030AF000130B0000030B1000130E8
:10089000B2000030B3000130B4000030B5000130C8
:1008A000B6000030B7000130B8000030B9000130A8
:1008B000BA000030BB0041015D084001BD004101AC
:1008C0005C084001BC008A313F2280310030400189
:1008D000AE00AF000030B000B1000030B200B30095
:1008E0000030B400B5000030B600B7000030B800EA
:1008F000B9000030BA00BB0041015B084001BD00F7
:1009000041015A084001BC008A313F228031013048
:100910004001AE000030AF000130B0000030B10047
:100920000130B2000030B3000130B4000030B50037
:100930000130B6000030B7000130B8000030B90017
:100940000130BA000030BB0041015D084001BD002C
:1009500041015C084001BC008A313F2280310130F6
:100960004001AE000030AF000030B000B1000030F8
:10097000B200B3000130B4000030B5000030B60062
:10098000B7000030B800B9000030BA00BB00410128
:100990005D084001BD0041015C084001BC008A3196
:1009A0003F22803101304001AE000030AF00003006
:1009B000B000B1000030B200B3000130B40000302C
:1009C000B5000030B600B7000030B800B900003004
:1009D000BA00BB0041015D084001BD0041015C0857
:1009E0004001BC008A313F22803101304001AE001D
:1009F0000030AF000030B000B1000030B200B300F2
:100A00000130B4000030B5000030B600B70000304F
:100A1000B800B9000030BA00BB0041015D084001D8
:100A2000BD0041015C084001BC008A313F22803199
:100A300001304001AE000030AF000130B0000030A6
:100A4000B1000130B2000030B3000130B40000301A
:100A5000B5000130B6000030B7000130B8000030FA
:100A6000B9000130BA000030BB0041015D0840010F
:100A7000BD0041015C084001BC008A313F22803149
:100A800000304001AE00AF000030B000B1000030D7
:100A9000B200B3000030B400B5000030B600B700BB
:100AA0000030B800B9000030BA00BB0041015B085B
:100AB0004001BD0041015A084001BC008A313F227B
:100AC000803101304001AE000030AF000130B00095
:100AD0000030B1000130B2000030B3000130B4008A
:100AE0000030B5000130B6000030B7000130B8006A
:100AF0000030B9000130BA000030BB0041015D0890
:100B00004001BD0041015C084001BC008A313F2228
:100B1000803100304001AE00AF000130B000003045
:100B2000B1000130B2000030B3000030B400B500B5
:100B30000030B600B7000030B800B9000130BA008C
:100B40000030BB0041015D084001BD0041015C086F
:100B50004001BC008A313F22803100304001AE00AC
:100B6000AF000030B000B1000030B200B30001307F
:100B7000B4000030B5000030B600B7000030B80057
:100B8000B9000030BA00BB0041015D084001BD0062
:100B900041015C084001BC008A313F2280310030B5
:100BA0004001AE00AF000030B000B1000030B20034
:100BB000B3000030B400B5000130B6000030B7001B
:100BC0000130B8000030B9000030BA00BB0041016C
:100BD0005D084001BD0041015C084001BC008A3154
:100BE0003F22803101304001AE000030AF000130C3
:100BF000B0000030B1000130B2000030B30001306D
:100C0000B4000030B5000130B6000030B70001304C
:100C1000B8000030B9000130BA000030BB0041011B
:100C20005D084001BD0041015C084001BC008A3103
:100C30003F22803100304001AE00AF000030B000F4
:100C4000B1000030B200B3000030B400B500003095
:100C5000B600B7000030B800B9000030BA00BB00E1
:100C600041015B084001BD0041015A084001BC0040
:100C70008A313F22803101304001AE000030AF00A8
:100C80000130B0000030B1000130B2000030B300DC
:100C90000130B4000030B5000130B6000030B700BC
:100CA0000130B8000030B9000130BA000030BB009C
:100CB00041015D084001BD0041015C084001BC00EC
:100CC0008A313F22803101304001AE000030AF0058
:100CD0000030B000B1000030B200B3000130B40009
:100CE0000030B5000030B600B7000030B800B900E1
:100CF0000130BA000030BB0041015D084001BD0079
:100D000041015C084001BC008A313F228031013042
:100D10004001AE000030AF000030B000B100003044
:100D2000B200B3000130B4000030B5000030B600AE
:100D3000B7000030B800B9000130BA000030BB0085
:100D400041015D084001BD0041015C084001BC005B
:100D50008A313F22803101304001AE000030AF00C7
:100D60000030B000B1000030B200B3000130B40078
:100D70000030B5000130B6000030B7000130B800D7
:100D80000030B9000130BA000030BB0041015D08FD
:100D90004001BD0041015C084001BC008A313F2296
:100DA000803101304001AE000030AF000130B000B2
:100DB0000030B1000130B2000030B3000130B400A7
:100DC0000030B5000130B6000030B7000130B80087
:100DD0000030B9000130BA000030BB0041015D08AD
:100DE0004001BD0041015C084001BC008A313F2246
:100DF000803100304001AE00AF000030B000B100E3
:100E00000030B200B3000030B400B5000030B600CE
:100E1000B7000030B800B9000030BA00BB00410193
:100E20005B084001BD0041015A084001BC008A3105
:100E30003F22803100304001AE00AF000030B000F2
:100E4000B1000030B200B3000030B400B500003093
:100E5000B600B7000030B800B9000030BA00BB00DF
:100E6000D030BC000730BD008A313F2280318B3149
:100E7000602B07304001A5000030A6008A3178229F
:100E800080317D084001A8007C08A70080311E2029
:100E9000803140012508013E4101D8000030400169
:100EA000263D4101D900073058065904031D642F1F
:100EB00003104001181C0314031C612F4001181477
:100EC000C92F40011810C92F063041015806590496
:100ED000031D762F03104001981C0314031C732F6D
:100EE00040019814C92F40019810C92F05304101C5
:100EF00058065904031D882F03104001181D0314C0
:100F0000031C852F40011815C92F40011811C92F46
:100F10000430410158065904031D9A2F0310400163
:100F20001A1C0314031C972F40011A14C92F4001E7
:100F30001A10C92F0330410158065904031DAC2F64
:100F4000031040019A1C0314031CA92F40019A149A
:100F5000C92F40019A10C92F023041015806590487
:100F6000031DBE2F031040011A1D0314031CBB2FC9
:100F700040011A15C92F40011A11C92F0310400151
:100F80009A1D0314031CC72F40019A15C92F400155
:100F90009A113230AC000030AD008931BA21803175
:100FA000372F40019A111A119A101A10181198101F
:100FB0001810372F41015708840009300402031824
:100FC000372F88310435003E8200372FA630840049
:100FD000893085003F308600003087000430803142
:100FE000182087310A3084008A308500203086003E
:100FF0000130870035308031182040018D31862D39
:101000008731D12F8D31F22D8D31FB2D8E314A2E2E
:101010008E31992E8F31032F8B31422B8B31622BE6
:041020008731392FAC
:10134C0001340034003400348931C92189318931A8
:10135C00B0210800623051018D008F0191010230E3
:10136C00930090019201080040012C082D040319F0
:10137C00080001304001AC020030AD3B5230890B0B
:10138C00C5290000BA29400198019A013030920019
:10139C00303094002F307E01CE001F30B800B901E0
:1013AC001030CF00BA01D00108000030FB00003033
:1013BC00FA000030F9000030F800701CED297408B8
:1013CC00F8077508F93D7608FA3D7708FB3D0130C2
:1013DC00F435F50DF60DF70D890BEE290130F336CA
:1013EC00F20CF10CF00C890BF529730872047104E2
:1013FC007004031DE3297B08F3007A08F2007908D6
:10140C00F1007808F000080043346F346E34673410
:10141C00723461347434733420346F346E34203449
:10142C00673465347434743469346E3467342034FE
:10143C0068346534723465342134203420344E34AD
:10144C006F347434203467346F346E346E346134DA
:10145C002034663469346E34643420346D3475341D
:10146C0063346834203468346534723465342E3413
:10147C00003440012E082F040319462A1814472A59
:10148C0018103008310403194D2A98144E2A98105C
:10149C00320833040319542A1815552A1811340824
:1014AC00350403195B2A1A145C2A1A1036083704FF
:1014BC000319622A9A14632A9A10380839040319FA
:1014CC00692A1A156A2A1A113A083B040319702A58
:1014DC009A15712A9A113D08AD003C08AC0089316F
:1014EC00BA21080040014208F3004108F20040080C
:1014FC00F1003F08F0004130F700C630F6004E30E6
:10150C00F5006D30F4008931DB218A31730840011C
:10151C00C2007208C1007108C0007008BF003930E9
:10152C00BF073030C03D0030C13D0030C23D3F08E8
:10153C00A0004008A1004108A2004208A3001030FE
:10154C00A400A337A20CA10CA00CA40BA72AFF305B
:10155C002005FC007F302105FD0008004001AE0095
:10156C000030AF000030B000B1000030B200B3006A
:10157C000030B400B5000030B600B7000030B80041
:10158C00B9000030BA00BB0041015D084001BD004C
:10159C0041015C084001BC008A313F228A31013094
:1015AC004001AE000030AF000030B000B1000030A0
:1015BC00B200B3000030B400B5000030B600B70084
:1015CC000030B800B9000030BA00BB0041015D0822
:1015DC004001BD0041015C084001BC008A313F2242
:1015EC008A3100304001AE00AF000030B000B100D5
:1015FC000030B200B3000030B400B5000030B600CB
:10160C00B7000030B800B9000030BA00BB0041018F
:10161C005B084001BD0041015A084001BC008A3101
:10162C003F228A3101304001AE000030AF00013062
:10163C00B0000030B1000130B2000030B300013016
:10164C00B4000030B5000130B6000030B7000130F6
:10165C00B8000030B9000130BA000030BB004101C5
:10166C005D084001BD0041015C084001BC008A31AD
:10167C003F2201308C31F42C40019A151A119A1426
:10168C001A10181598101814C830AC000030AD00A2
:10169C008931BA218B3140019A111A159A101A14FA
:1016AC00181198141810C830AC000030AD008931F6
:1016BC00BA218B318D31A42D01304001AE000030A8
:1016CC00AF000030B000B1000030B200B300003009
:1016DC00B400B5000030B600B7000030B800B90057
:1016EC000030BA00BB0041015D084001BD00410162
:1016FC005C084001BC008A313F228B310130400133
:10170C00AE000030AF000030B000B1000030B200CD
:10171C00B3000030B400B5000030B600B7000030A4
:10172C00B800B9000030BA00BB0041015D084001AF
:10173C00BD0041015C084001BC008A313F228B3165
:10174C0001304001AE000030AF000130B00000307D
:10175C00B1000130B2000030B3000130B4000030F1
:10176C00B5000130B6000030B7000130B8000030D1
:10177C00B9000130BA000030BB0041015D084001E6
:10178C00BD0041015C084001BC008A313F220130A0
:10179C008A31B42A4001AE000030AF000030B000F6
:1017AC00B1000030B200B3000130B4000030B5001D
:1017BC000030B600B7000030B800B9000130BA00F4
:1017CC000030BB0041015D084001BD0041015C08D7
:1017DC004001BC008A313F228B3101304001AE0008
:1017EC000030AF000030B000B1000030B200B300E8
:1017FC000130B4000030B5000030B600B700003046
:10180C00B800B9000130BA000030BB0041015D08DE
:10181C004001BD0041015C084001BC008A313F22FF
:10182C008B3100304001AE00AF000030B000B10091
:10183C000030B200B3000030B400B5000030B60088
:10184C00B7000030B800B9000030BA00BB0041014D
:10185C005B084001BD0041015A084001BC008A31BF
:10186C003F228B3101304001AE000030AF0001301F
:10187C00B0000030B1000130B2000030B3000130D4
:10188C00B4000030B5000130B6000030B7000130B4
:10189C00B8000030B9000130BA000030BB00410183
:1018AC005D084001BD0041015C084001BC008A316B
:1018BC003F220130803164284001AE00AF0000307F
:1018CC00B000B1000030B200B3000030B400B5007D
:1018DC000030B600B7000030B800B9000030BA00D4
:1018EC00BB0041015B084001BD0041015A084001A9
:1018FC00BC008A313F228C3101304001AE000030F7
:10190C00AF000130B0000030B1000130B200003047
:10191C00B3000130B4000030B5000130B600003027
:10192C00B7000130B8000030B9000130BA00003007
:10193C00BB0041015D084001BD0041015C08400154
:10194C00BC008A313F228C3101304001AE000030A6
:10195C00AF000030B000B1000030B200B300013075
:10196C00B4000030B5000030B600B7000030B8004D
:10197C00B9000130BA000030BB0041015D084001E4
:10198C00BD0041015C084001BC008A313F228C3112
:10199C0001304001AE000030AF000030B000B100AB
:1019AC000030B200B3000130B4000030B50000309C
:1019BC00B600B7000030B800B9000130BA000030F2
:1019CC00BB0041015D084001BD0041015C084001C4
:1019DC00BC008A313F2201308B31D02B4001AE004C
:1019EC000030AF000030B000B1000030B200B300E6
:1019FC000130B4000030B5000030B600B700003044
:101A0C00B800B9000030BA00BB0041015D084001CC
:101A1C00BD0041015C084001BC008A313F228C3181
:101A2C0001304001AE000030AF000030B000B1001A
:101A3C000030B200B3000130B4000030B50000300B
:101A4C00B600B7000030B800B9000030BA00BB00D7
:101A5C0041015D084001BD0041015C084001BC0032
:101A6C008A313F228C3101304001AE000030AF0092
:101A7C000030B000B1000030B200B3000130B4004F
:101A8C000030B5000030B600B7000030B800B90027
:101A9C000030BA00BB0041015D084001BD004101AE
:101AAC005C084001BC008A313F228C31013040017E
:101ABC00AE000030AF000130B0000030B10001309A
:101ACC00B2000030B3000130B4000030B50001307A
:101ADC00B6000030B7000130B8000030B90001305A
:101AEC00BA000030BB0041015D084001BD0041015E
:101AFC005C084001BC008A313F2200308C31622CE2
:101B0C008931AA218D314101D501D601D701083087
:101B1C00DC000030DD001030DA000030DB0020305B
:101B2C00860001308700A0308400003085003530FD
:101B3C004001BE0016001A00BE0BA02D40010E1A6B
:101B4C00C62D0530AC000030AD008931BA218D3185
:101B5C0040010E1ABF2D40019A151A159A141A1429
:101B6C0018159814181401304101D5000030D60016
:101B7C00AE2D9A111A119A101A10181198101810DB
:101B8C00410155085604031DE52D8731DA2FD70185
:101B9C00D70AEF2D0230DD2D0330DD2D0430DD2D85
:101BAC000530DD2D0630DD2D0730DD2D08304001F0
:101BBC00BE003E084101D700EF2DD701EF2D57088D
:101BCC008400093004020318EF2D80310435043EE3
:101BDC008200D501D601CB2D40019A151A159A1405
:101BEC001A14181598141814A42D031040019A1DDA
:101BFC000314031C042E40019A15062E40019A1161
:101C0C0003101A1D0314031C0E2E40011A15102E5E
:101C1C0040011A1103109A1C0314031C182E4001C6
:101C2C009A141A2E40019A1003101A1C0314031C48
:101C3C00222E40011A14242E40011A100310181DD4
:101C4C000314031C2C2E400118152E2E40011811C4
:101C5C000310981C0314031C362E40019814382EC4
:101C6C00400198100310181C0314031C402E400153
:101C7C001814422E40011810E830AC000330AD00AF
:101C8C008931BA218D31A42D031040019A1D031402
:101C9C00031C532E40019A15552E40019A11031026
:101CAC001A1D0314031C5D2E40011A155F2E4001F2
:101CBC001A1103109A1C0314031C672E40019A146A
:101CCC00692E40019A1003101A1C0314031C712E68
:101CDC0040011A14732E40011A100310181D03141E
:101CEC00031C7B2E400118157D2E4001181103108A
:101CFC00981C0314031C852E40019814872E400158
:101D0C0098100310181C0314031C8F2E4001181478
:101D1C00912E400118106430AC000030AD008931B8
:101D2C00BA218D31A42D40019A151A119A101A104E
:101D3C001811981018106430AC000030AD008931C7
:101D4C00BA218D3140019A111A159A101A101811D6
:101D5C00981018106430AC000030AD008931BA21F5
:101D6C008D3140019A111A119A141A1018119810E9
:101D7C0018106430AC000030AD008931BA218D31BF
:101D8C0040019A111A119A101A141811981018105F
:101D9C006430AC000030AD008931BA218D31400186
:101DAC009A111A119A101A101815981018106430EC
:101DBC00AC000030AD008931BA218D3140019A114F
:101DCC001A119A101A101811981418106430AC00CB
:101DDC000030AD008931BA218D3140019A111A11B0
:101DEC009A101A101811981018146430AC000030A6
:101DFC00AD008931BA218D31A42D031040019A1DFB
:101E0C000314031C0C2F40019A150E2F40019A113C
:101E1C002C30A5000130A6008A3178228D317D0846
:101E2C004001A8007C08A70080311E208D314001A4
:101E3C002508053EAC000030263DAD008931BA21A5
:101E4C008D31031040011A1D0314031C302F400167
:101E5C001A15322F40011A112C30A5000130A600A2
:101E6C008A3178228D317D084001A8007C08A700BA
:101E7C0080311E208D3140012508053EAC0000301C
:101E8C00263DAD008931BA218D31031040019A1CD9
:101E9C000314031C542F40019A14562F40019A101E
:101EAC002C30A5000130A6008A3178228D317D08B6
:101EBC004001A8007C08A70080311E208D31400114
:101ECC002508053EAC000030263DAD008931BA2115
:101EDC008D31031040011A1C0314031C782F400190
:101EEC001A147A2F40011A102C30A5000130A600CC
:101EFC008A3178228D317D084001A8007C08A7002A
:101F0C0080311E208D3140012508053EAC0000308B
:101F1C00263DAD008931BA218D3103104001181DC9
:101F2C000314031C9C2F400118159E2F40011811FF
:101F3C002C30A5000130A6008A3178228D317D0825
:101F4C004001A8007C08A70080311E208D31400183
:101F5C002508053EAC000030263DAD008931BA2184
:101F6C008D3103104001981C0314031CC02F400139
:101F7C009814C22F400198102C30A5000130A600F7
:101F8C008A3178228D317D084001A8007C08A70099
:101F9C0080311E208D3140012508053EAC000030FB
:101FAC00263DAD008931BA218D3103104001181C3A
:101FBC000314031CE42F40011814E62F40011810E1
:101FCC002C30A5000130A6008A3178228D317D0895
:101FDC004001A8007C08A70080311E208D314001F3
:101FEC002508053EAC000030263DAD008931BA21F4
:041FFC008D31A42D52
:020000040001F9
:0A000E00EC3FFF3F9F3FFF3FFF3F25
:00000001FF
